:020000040800F2
:1000000000000220C9010008350500083705000876
:10001000390500083B0500083D0500080000000008
:100020000000000000000000000000004105000882
:100030003F050008000000004305000845050008D2
:100040001902000819020008190200081902000824
:100050001902000819020008190200081902000814
:100060001902000819020008190200081902000804
:1000700019020008190200081902000819020008F4
:1000800019020008190200081902000819020008E4
:1000900019020008190200081902000819020008D4
:1000A00019020008190200081902000819020008C4
:1000B00019020008190200081902000819020008B4
:1000C00019020008190200081902000819020008A4
:1000D0001902000819020008190200081902000894
:1000E0001902000819020008190200081902000884
:1000F0001902000819020008190200081902000874
:100100001902000819020008190200081902000863
:100110001902000819020008190200081902000853
:100120001902000819020008190200081902000843
:100130001902000819020008190200081902000833
:100140001902000819020008190200081902000823
:100150001902000819020008190200081902000813
:100160001902000819020008190200081902000803
:100170001902000819020008190200080000000016
:08018000190200081902000831
:1001880010B5054C237833B9044B13B10448AFF3C9
:1001980000800123237010BD2C0400200000000003
:1001A8007006000808B5034B1BB103490348AFF3B9
:1001B800008008BD00000000300400207006000820
:1001C800DFF834D000F088F80C480D490D4A0023B8
:1001D80002E0D458C4500433C4188C42F9D30A4AF4
:1001E8000A4C002301E013600432A242FBD300F062
:1001F800A7F900F031F97047000002200000002044
:100208002C040020980600082C0400204C04002030
:10021800FEE7000082B00023019300932A4A136886
:1002280043F480331360284B1B6803F400330093B6
:10023800019B01330193009B1BB9019BB3F5A04FB0
:10024800F1D1214B1B6813F4003F06D00123009322
:10025800009B012B04D002B0704700230093F7E7FE
:10026800194B1A6C42F080521A6418490A6842F411
:1002780040420A609A689A609A6842F400429A601A
:100288009A6842F4A0529A60114A5A601A6842F079
:1002980080721A600C4B1B6813F0007FFAD00D4B6C
:1002A80040F205721A60A3F580639A6822F003028F
:1002B8009A609A6842F002029A60034B9B6803F0C6
:1002C8000C03082BF9D1C6E7003802400070004043
:1002D80019544007003C024008B50D4B1A6842F01B
:1002E80001021A60002199601A6822F0847222F4CF
:1002F80080321A60074A5A601A6822F480221A600B
:10030800D960FFF787FF044B4FF000629A6008BD81
:10031800003802401030002400ED00E000230F2BCD
:100328004ED830B516E0C2681FFA83FE4FEA4E0475
:100338004FF0030E0EFA04FE22EA0E02C260C268F3
:1003480091F807E00EFA0CFC42EA0C02C260013395
:100358000F2B34D801229A400C68A243F7D10468C5
:100368004FEA430C032202FA0CF26FEA020E24EA67
:100378000202026002680C7904FA0CF4224302605B
:100388000A79013AD2B2012ACDD882680EEA02026D
:10039800826082684C7904FA0CF4224382604468D3
:1003A8009DB24FF0010E0EFA05FE24EA0E044460D9
:1003B80044688A79AA4092B222434260B3E730BDCA
:1003C80070470183704741837047000021B1054A97
:1003D800136B184310637047024A136B23EA00003B
:1003E8001063704700380240F0B583B00121202027
:1003F800FFF7ECFF4027009701228DF80420002327
:100408008DF806308DF807208DF805300B4C6946BD
:100418002046FFF783FF8026009669462046FFF7AF
:100428007DFF4FF48075009569462046FFF776FFFB
:1004380027832683258303B0F0BD00BF0014024044
:1004480082B0019002E0019B013B0193019B002BCC
:10045800F9D102B07047000080B5FFF7C5FF324CF4
:1004680040212046FFF7AFFF6FF07F40FFF7E8FF1E
:1004780040212046FFF7A5FF80212046FFF7A3FF74
:100488006FF07F40FFF7DCFF80212046FFF799FFE0
:100498004FF480712046FFF796FF6FF07F40FFF71B
:1004A800CFFF4FF480712046FFF78BFF402767830B
:1004B800802626834FF4807525836FF07F40FFF7F1
:1004C800BFFF2783668325836FF07F40FFF7B8FF60
:1004D8002783268365836FF07F40FFF7B1FF67832B
:1004E800668325836FF07F40FFF7AAFF6783268323
:1004F80065836FF07F40FFF7A3FF278366836583DB
:100508006FF07F40FFF79CFF6783668365836FF01A
:100518007F40FFF795FF2783268325836FF07F4071
:10052800FFF78EFF9BE700BF001402407047FEE70D
:10053800FEE7FEE7FEE77047704770477047000028
:1005480070B50D4E0D4D761BB61006D0002455F82B
:10055800043B01349847A642F9D1094E094D761B50
:1005680000F082F8B61006D0002455F8043B013498
:100578009847A642F9D170BD8C0600088C06000881
:10058800940600088C060008024B13B1024800F0DC
:1005980005B8704700000000B105000800230146B7
:1005A8001A46184600F01AB838B5084B084D5B1BB8
:1005B8009C1007D0043B1D44013C55F8043998476A
:1005C800002CF9D1BDE8384000F054B8980600086E
:1005D80094060008704700BF704700BF2DE9F04738
:1005E800DFF87CA00646DAF8000098460F469146E8
:1005F800FFF7F0FF1B4B1B68D3F8484124B365682D
:100608001F2D26DC5EB96B1C0235DAF8000063602A
:1006180044F82570FFF7E0FF0020BDE8F08704EB01
:1006280085010123C1F88890D4F88821AB401A438A
:10063800022EC4F88821C1F80881E4D1D4F88C21AD
:100648001343C4F88C31DEE703F5A674C3F84841B8
:10065800D5E7DAF80000FFF7BFFF4FF0FF30DCE71F
:100668002804002088060008F8B500BFF8BC08BCBC
:100678009E467047F8B500BFF8BC08BC9E46704758
:04068800000000204E
:08068C0091050008AD01000812
:0406940089010008D0
:1006980000000000EC02002054030020BC030020EE
:1006A8000000000000000000000000000000000042
:1006B8000000000000000000000000000000000032
:1006C8000000000000000000000000000000000022
:1006D8000000000000000000000000000000000012
:1006E8000000000000000000000000000000000002
:1006F80000000000000000000000000000000000F2
:1007080000000000000000000000000000000000E1
:1007180000000000000000000000000000000000D1
:1007280000000000000000000000000000000000C1
:1007380000000000000000000100000000000000B0
:100748000E33CDAB34126DE6ECDE05000B00000075
:100758000000000000000000000000000000000091
:100768000000000000000000000000000000000081
:100778000000000000000000000000000000000071
:100788000000000000000000000000000000000061
:0C0AB800000000000000000048040020C6
:04000005080001C925
:00000001FF
